:020000040800F2
:10000000A06900205D0200083F9C0008F96F00080D
:100010001D9C00087D0C000841BF00080000000086
:100020000000000000000000000000009D0100082A
:100030005B25000800000000F901000825AA00085F
:1000400077020008770200087702000877020008AC
:10005000770200087702000877020008770200089C
:10006000770200087702000877020008770200088C
:100070000124000877020008112400087702000814
:10008000770200087702000877020008D10C000808
:10009000C10C000877020008770200087702000808
:1000A000770200087702000877020008770200084C
:1000B000770200087702000877020008770200083C
:1000C000770200087702000877020008770200082C
:1000D00077020008F9BE000809BF000819BF000830
:1000E000770200087702000877020008770200080C
:1000F00077020008E5AB00087702000877020008E5
:1001000077020008770200087702000877020008EB
:10011000DDAF000877020008C5AB0008D5AB0008CA
:1001200077020008770200082124000877020008FF
:10013000770200087702000877020008690D0008BE
:10014000590D0008770200087702000877020008BE
:1001500077020008770200087702000831BF000824
:10016000770200087702000877020008770200088B
:1001700077020008770200087702000800000000FC
:100180007702000877020008DFF80CD000F028FCA6
:100190000048004791EC0008A06900202C4B19682A
:1001A0000868B0E8F04F80F30988BFF36F8F4FF015
:1001B000000080F3118870470000000008480068C4
:1001C000006880F308884FF0000080F3148862B65E
:1001D00061B6BFF34F8FBFF36F8F00DF00BF00BF6B
:1001E00008ED00E0DFF80C00016841F470010160E7
:1001F000704700BF88ED00E0EFF30980BFF36F8F19
:10020000134B1A681EF0100F08BF20ED108A20E96A
:10021000F04F106009B44FF0500080F31188BFF325
:100220004F8FBFF36F8F10F03BF84FF0000080F35B
:10023000118809BC19680868B0E8F04F1EF0100F6B
:1002400008BFB0EC108A80F30988BFF36F8F704746
:10025000B4000020EFF30580704700000648804797
:1002600006480047FEE7FEE7FEE7FEE7FEE7FEE79B
:10027000FEE7FEE7FEE7FEE715AB00088901000890
:100280002DE9F05F0546002092469B4688460646CB
:10029000814640241BE0284641464746224600F05E
:1002A000E1F953465A46C01A914110D311461846F7
:1002B000224600F0C8F92D1A67EB01084F46224686
:1002C0000120002100F0BFF917EB00094E41201E6C
:1002D000A4F10104DFDC484631462A464346BDE826
:1002E000F09F40EA01039B0703D009E008C9121FF1
:1002F00008C0042AFAD203E011F8013B00F8013BE0
:10030000521EF9D27047D2B201E000F8012B491E0B
:10031000FBD270470022F6E710B513460A460446A2
:100320001946FFF7F0FF204610BD2DE9FE4F80462D
:1003300081EA0300C00F0C46009021F0004123F039
:100340000045B8EB0200A94105D24046214690463F
:100350001C460B46024623F00040104347D0270DB1
:10036000C7F30A00C3F30A510290401A01904028D3
:100370006BDAC3F3130040F4801B0098924620B15F
:100380000023D2EB030A63EB0B0B01985946C0F133
:100390004002504600F057F906460D465046594671
:1003A000019A00F06FF910EB08006141002487EA20
:1003B000115284EAE7731A4340D0009A62B3019A5B
:1003C000012A4FEA075215DC001B61EB02014FF0D6
:1003D000004202EA0752CDE90042001C41F58011BB
:1003E00032462B4600F0A6F903B0BDE8F08F404638
:1003F0002146F9E7001B61EB0201001C41F5801367
:1004000000185B412018A2F5001747EB030140EAF2
:10041000D570B6196D4111E06D084FEA360645EA10
:10042000C0754FEA0752001B61EB0201001C41F549
:10043000801149084FEA30000019514132462B46DD
:1004400003B0BDE8F04F00F066B90098012240000B
:100450000023D0EB020263EBE073009821464FEAE1
:10046000E074B8EB000061EB0401E9E783F00043BE
:100470005BE781F0004158E72DE9FE4F81EA030474
:1004800004F0004421F0004100944FF0000B23F0F1
:10049000004350EA01045ED052EA03045BD0C3F388
:1004A0000A54C1F30A552C44A4F2F3340194A0FB7E
:1004B0000254C1F3130141F48011C3F3130343F455
:1004C000801301FB024400FB034E840A970A44EAAE
:1004D000815447EA8357A4FB076802958D0A05FB00
:1004E00007854FEA932C04FB0C542705029D4FEA25
:1004F000065847EA1637B5EB08056EEB070C870E72
:10050000920E47EA811742EA8312A7FB0201B6EB7B
:100510000B0164EB00042B0D43EA0C335E1844EB33
:100520001C50DA465146E7FB0201C5F313044FEABB
:100530000B3343EA14534FEA0432019C43EA0603A7
:10054000A4F10C040294009CCDE900B400F0F2F890
:1005500003B0BDE8F08F00200146F9E70EB5C10FEA
:1005600080EAE0700844CA07002140F233438DE876
:100570000E000A460B4600F0DDF803B000BD70B572
:10058000C1F30A5201F000450024C1F3130140F207
:10059000FF3341F480119A4201DA002070BD40F22D
:1005A00033439A42A2F2334203DC524200F05AF83B
:1005B00000E090402C43F1D0404270BD00F000427A
:1005C00030F000400AD0C10D01F56071C0F3160093
:1005D00042EA0151C208400711437047002001461A
:1005E000704701F0004330B421F0004150EA0102AD
:1005F00006D00A0DA2F56072C1F31301002A02DCD5
:1006000030BC00207047440F44EAC104C100E01828
:1006100030BC00EBC25000F047B830B50B46014685
:1006200000202022012409E021FA02F59D4205D391
:1006300003FA02F5491B04FA02F52844151EA2F13B
:100640000102F1DC30BD202A04DB203A00FA02F17D
:10065000002070479140C2F1200320FA03F31943B0
:1006600090407047202A04DB203A21FA02F0002152
:10067000704721FA02F3D040C2F1200291400843B2
:1006800019467047202A06DBCB17203A41FA02F0C0
:1006900043EAE07306E041FA02F3D040C2F12002DF
:1006A00091400843194670470029A8BF7047401C75
:1006B000490008BF20F00100704710B4B0FA80FC78
:1006C00000FA0CF050EA010404BF10BC704749B1B5
:1006D000CCF1200421FA04F411FA0CF118BF012125
:1006E00021430843A3EB0C01CB1D4FEA00614FEA05
:1006F000102042BF002010BC704700EBC3501044D4
:100700000029A4BF10BC7047401C490008BF20F05E
:10071000010010BC704710B5141E73F1000408DA14
:10072000401C41F1000192185B411A4301D120F0B5
:10073000010010BD2DE9F04D92469B4611B1B1FA72
:1007400081F202E0B0FA80F220329046FFF77BFFA0
:1007500004460F4640EA0A0041EA0B0153465A4656
:10076000084313D0114653EA010019D0C8F14002E2
:100770005046FFF777FF05460E465046594642461B
:10078000FFF761FF084305D0012004E02046394609
:10079000BDE8F08D0020054346EAE0762C43374360
:1007A0000A986305E40AA0EB08000022FD0A44EA67
:1007B00047540A3002D500200146E9E70105101927
:1007C0006941DDE9084500196941BDE8F04DA2E73E
:1007D0002DE9F04D81EA030404F0004B21F00045BF
:1007E00014464FF0000A23F0004150EA050220D0E1
:1007F00054EA01021DD0C5F30A570246C5F313039C
:10080000C1F31300C1F30A5640F4801543F480137A
:10081000A7EB0608101BD64608F2FD3873EB05005F
:1008200002D308F1010801E092185B41B8F1000F12
:1008300003DA00200146BDE8F08D00204FF480115E
:10084000064684460EE0171B73EB050705D3121B03
:1008500063EB050306434CEA010C49084FEA3000FC
:1008600092185B4150EA0107EDD152EA030012D021
:1008700082EA040083EA0501084305D0101BAB415E
:1008800006D20122002306E000224FF0004302E0DE
:100890006FF0010253101AEB06004CEB085110EBFD
:1008A0000A0041EB0B01BDE8F04DFFF734BF70B516
:1008B00021F0004303430CD0C1F30A550024D5EBCB
:1008C000040564EB0403D617AD1AB34102DB002024
:1008D000014670BD201841EB025170BD2DE9F04D6D
:1008E00000231A461B1A8A4103DB00200146BDE89B
:1008F000F08DC1F30A52C1F3130141F480154FF09A
:10090000000BD10702D100186D41521E002704468A
:1009100040F2FF11384601EB620A3E46804602462D
:1009200000204FF48011FFF79DFEC2197141BB18E2
:1009300046EB0100B4EB030C75EB000C04D3E41A96
:1009400065EB000517460E46241908F101006D41BC
:1009500080463428E3DDF91946EB0600091BA8415F
:1009600003D24FF0FF32134601E0002213461BEB87
:10097000070046EB0A51BDE8F04DFFF7CCBEC1F3CE
:100980000A52C1F3130140F2FF3341F480119A423D
:1009900002DA00200146704740F233439A42A2F245
:1009A000334202DC5242FFF75DBEFFF74CBE00004F
:1009B00030B5041E71F1000404DB4FF000444042E6
:1009C00064EB0101141E73F1000405DB1C464FF0BB
:1009D0000043524263EB0403994208BF904230BD8A
:1009E000064C074D06E0E06840F0010394E807007C
:1009F00098471034AC42F6D3FFF7CAFB181D010824
:100A0000381D010870B58C1810F8015B15F007034C
:100A100001D110F8013B2A1106D110F8012B03E097
:100A200010F8016B01F8016B5B1EF9D12B0705D49F
:100A30000023521E0DD401F8013BFAE710F8013BE8
:100A4000CB1A921C03E013F8015B01F8015B521E04
:100A5000F9D5A142D8D3002070BD000010B50248DE
:100A600002F068F810BD0000B406002010B5084878
:100A700002F060F84FF0FF31054801F0F9FF20B9AE
:100A8000034801F07DFF80B210BD0020FCE70000AC
:100A9000B406002055494A6822F440324A604A6848
:100AA00043681A434A600268526822F480720368FD
:100AB0005A6002685368026943EA022203685A6076
:100AC0000268526822F0407203685A6002685268F5
:100AD00083681A4303685A600268926822F40062CD
:100AE00003689A6002689268C3681A4303689A6050
:100AF0003F4B826A9A4218D00268926822F0706274
:100B000003689A6002689268836A1A4303689A606D
:100B10000268926822F0405203689A600268926804
:100B2000C36A1A4303689A600BE00268926822F075
:100B3000706203689A600268926822F0405203680B
:100B40009A600268926822F0020203689A60026862
:100B50009368027E43EA420203689A602022125C94
:100B6000A2B10268526842F4006203685A600268E7
:100B7000526822F4604203685A6002685368426A0D
:100B8000521E43EA423203685A6005E00268526826
:100B900022F4006203685A600268D26A22F470028A
:100BA0000368DA620268D36A828B521E43EA0252F9
:100BB0000368DA620268926822F4007203689A603D
:100BC0000268936890F8302043EA422203689A60F2
:100BD0000268926822F4806203689A6002689368EF
:100BE000426943EA822203689A6070470023014009
:100BF0000100000F10B52DED048BB0EE408AFFF719
:100C000035FF00EE100AB8EE400ADFED1A0A20EEBA
:100C1000200AF0EE408A03200EF0F2F8FFF726FFDC
:100C200000EE100AB8EE400ADFED120A20EE200AAC
:100C3000B0EE409A78EEC80AB0EE600A08F0F0FF15
:100C4000DFED0D0AB4EEE00AF1EE10FA10D279EE03
:100C5000480AB0EE600A08F0E3FFDFED070AB4EEE1
:100C6000E00AF1EE10FA03D20020BDEC048B10BDB7
:100C70000120FAE73333533ACDCCCC3D00BFFEE739
:100C800000B58BB00020069007900120089000204E
:100C9000019002900390049005900120099000209B
:100CA0000A9001A9054802F0A3F8044802F099FE51
:100CB0000321024801F0DCFF0BB000BDFC06002060
:100CC00010B5024802F0E4F910BD0000FC06002057
:100CD00010B50448808B401C02498883024802F00A
:100CE000D7F910BD34080020FC06002038B50546B1
:100CF0000C46074805600020054948608860C860C8
:100D0000082008616B462246024801F0C6FF38BD44
:100D10004C070020FC06002000B58BB00020069098
:100D20000790012008900020019002900390049009
:100D300005900120099000200A9001A9054802F0C1
:100D400057F8044802F04DFE0321024801F090FFDD
:100D50000BB000BD2407002010B5024802F098F93E
:100D600010BD00002407002010B50548808C401CF1
:100D700081B203488184034802F08AF910BD000063
:100D8000340800202407002038B505460C460748E3
:100D900005600020054948608860C8600820086137
:100DA0006B462246024801F078FF38BD64070020F8
:100DB0002407002010B502480AF0AEFE10BD000066
:100DC0003054002010B52F4803882FA20021084678
:100DD00009F01EF92FA20121002009F0C9F82948C5
:100DE00083782EA20221002009F012F92548C37849
:100DF0002DA20321002009F00BF9224803792DA22E
:100E00000421002009F004F91E4883792CA2052151
:100E1000002009F0FDF81B48C3792CA20621002010
:100E200009F0F6F8174803892BA20021402009F0A9
:100E3000EFF82CA20121402009F09AF81148837A9A
:100E400016A20221402009F0E3F80E48C37A16A248
:100E50000321402009F0DCF80A48037B23A2042187
:100E6000402009F0D5F80748437B12A20521402015
:100E700009F0CEF80348837B1FA20621402009F029
:100E8000C7F810BD3408002043414E3154783A254C
:100E90006400000043414E31527800003078323017
:100EA000313A25640000000030783230323A25644F
:100EB0000000000030783230343A25640000000031
:100EC00030783230393A2564000000003078323012
:100ED000413A25640000000043414E3254783A25DF
:100EE0006400000043414E325278000030783230C6
:100EF000333A25640000000030783231313A2564FD
:100F00000000000010B502480AF006FE10BD000007
:100F10007055002010B54748C07B0F287CDD0024A9
:100F200076E004EB840101EBC401434A02EBC1010A
:100F3000B1F91A00414991ED000ABDEEC00A10EE68
:100F4000101A0AB23D4991ED000AB1EE400ABDEE19
:100F5000C00A10EE101A09B20DF008F904EB840172
:100F600001EBC401344A02EBC101488304EB840263
:100F7000334901EB4211D1F89C00324991ED000A4E
:100F8000BDEEC00A10EE102A91ED000AB1EE400A43
:100F9000BDEEC00A10EE101A0DF0F3F801B204EB2A
:100FA0008402274800EB4210418604EB840000EBEA
:100FB000C400214901EBC000408BC0F30721224847
:100FC00000F8141004EB840000EBC4001A4901EB94
:100FD000C000827E6000401C1B490A5404EB84015F
:100FE000174800EB4110408EC0F307211648083027
:100FF00000F8141004EB8401114800EB411090F844
:1010000032206000401C104908310A54601CC4B2F0
:10101000022C86DB02E0FFE701F0E0F80A494FF41A
:101020000070FFF7B1FE0849083140F2FF10FFF7EA
:10103000ABFE10BD34080020985B0020CC010020DE
:10104000385D0020A8010020B85F00200FB410B563
:101050002DED028B8AB000240DF0A6FAB0EE408A86
:101060009DF84000012804D0022843D0032870D105
:1010700070E0242212A96846FFF733F90EA80FC8C2
:101080000EF03CFD7648B0F900107648B0F900004B
:10109000B0EE480A0DF050FE9DF84100012810D036
:1010A000022814D003281DD16F48B0F9440400EE83
:1010B000900AF8EEE00AB0EE600A0DF0F9F9044685
:1010C00016E0B0EE480A0DF0D7F9044610E02422ED
:1010D00012A96846FFF705F90EA80FC80DF022FB0C
:1010E000044605E0B0EE480A0DF0C6F9044600BF1C
:1010F00000BFA4E0242212A96846FFF7F2F80EA868
:101100000FC80EF0FBFC5648B0F900105548B0F976
:101110000000B0EE480A0DF00FFE9DF841000128D6
:1011200007D0022809D003280DD10DF0D9F80446C4
:101130000DE00DF0D5F8044609E0B0EE480A00F0E5
:10114000EDFC044603E00DF0CBF8044600BF00BF01
:1011500075E073E0242212A96846FFF7C2F80EA8D2
:101160000FC80DF0EFFC3E48B0F900103D48B0F953
:101170000000B0EE480A0DF0DFFD3C480078322850
:1011800004DA3A480078401C384908700EA8408CB0
:1011900001280DD13648007850B9344800783228FB
:1011A00006D101203249087000203049087010E053
:1011B0000EA8408C01280CD12D480078012808D1B8
:1011C0002A480078322804D100202949087027498C
:1011D00008702748007810B101282CD11DE00EA816
:1011E000808D01280CD12048B0F9440400EE900A0B
:1011F000F8EEE00AB0EE600A0DF05AF904460BE092
:101200001948B0F9440400EE900AF8EEE00AB0EE96
:10121000600A0DF04DF904460EE00EA8808D0128FD
:1012200005D1B0EE480A0DF027F9044602E00DF0B2
:1012300057F8044600E000BF00BF00E000BF00BF59
:101240004EF66022514220460CF09BFF0649C1F841
:1012500048040AB0BDEC028B10BC5DF814FB000022
:10126000D2010020D0010020985B0020480200201D
:10127000D80100200FB4BDF82000012810D10021B2
:101280000848A0F8461400200649A1F8440406487E
:1012900090ED000ABDEEC00A01F2444080ED010A63
:1012A00004B07047985B0020DC01002010B50024DA
:1012B00018E004EB840101EBC401374A02EBC101E1
:1012C00001F11C003549D1ED001A354991ED001AA4
:1012D0003449D1ED000A344991ED000A0DF040FF88
:1012E000601CC4B2022CE4DB002418E004EB84018F
:1012F00001EBC401284A02EBC10101F140002B4976
:10130000D1ED001A2A4991ED001A2A49D1ED000ABF
:10131000294991ED000A0DF023FF601CC4B2022C94
:10132000E4DB002418E004EB8402244901EB4211C1
:1013300001F13400224991ED002AD1ED001A214932
:1013400091ED001A2049D1ED000A204991ED000AE3
:101350000DF07AFE601CC4B2022CE4DB002418E01D
:1013600004EB8402154901EB421101F168001849B0
:1013700091ED002AD1ED001A164991ED001A164997
:10138000D1ED000A154991ED000A0DF05DFE601CDB
:10139000C4B2022CE4DB10BD985B0020B801002031
:1013A000B4010020B0010020AC010020C8010020E1
:1013B000C4010020C0010020BC010020385D0020D5
:1013C00094010020900100208C0100208801002061
:1013D000A4010020A00100209C0100209801002011
:1013E00010B52DED088BE14800F5E0720221D0F830
:1013F000C431084609F086FDFFF758FF002434E0A9
:1014000004EB840101EBC401D84A02EBC101B1F93C
:101410001200FFF7A3F89FEDD60B53EC102BFFF74C
:101420002BF841EC190B04EB840101EBC401CF4A0A
:1014300002EBC101B1F90600FFF790F89FEDCE0B6A
:1014400053EC102BFFF718F853EC192BFEF76DFF38
:10145000FFF795F801B204EB840000EBC400C34A27
:1014600002EBC0004182601CC4B2022CC8DB002425
:1014700033E004EB840101EBC401BC4A02EBC1017F
:1014800001F11C0004EB840101EBC40102EBC1017A
:10149000B1F9121001EE101AB8EEC11AF0EE410ABD
:1014A00004EB840101EBC40132F9311001EE101A92
:1014B000B8EEC11AB0EE410A0DF05BFEBDEEC00AF7
:1014C00010EE100A00B204EB840101EBC401A74A3C
:1014D00002EBC1014880601CC4B2022CC9DB0024AD
:1014E00034E004EB840101EBC401A04A02EBC1012A
:1014F000B1F91800FFF732F89FED9D0B53EC102B5C
:10150000FEF7BAFF41EC1A0B04EB840101EBC401B6
:10151000964A02EBC101B1F90200FFF71FF89FEDF7
:10152000960B53EC102BFEF7A7FF53EC1A2BFEF78C
:10153000FCFEFFF724F801B204EB840000EBC400CA
:101540008A4A02EBC0000183601CC4B2022CC8DBD3
:10155000002434E004EB840101EBC401834A02EB74
:10156000C101B1F91400FEF7F9FF9FED810B53ECB7
:10157000102BFEF781FF41EC1A0B04EB840101EB09
:10158000C4017A4A02EBC101B1F90800FEF7E6FF97
:101590009FED790B53EC102BFEF76EFF53EC1A2BDB
:1015A000FEF7C3FEFEF7EBFF01B204EB840000EB95
:1015B000C4006E4A02EBC0008182601CC4B2022CDF
:1015C000C8DB002436E004EB840101EBC401674A68
:1015D00002EBC10101F1400004EB840101EBC40105
:1015E00002EBC101B1F9141001EE101AB8EEC11AE4
:1015F000F0EE410A04EB840101EBC40102EBC101EE
:10160000B1F9181001EE101AB8EEC11AB0EE410A85
:101610000DF0AFFDBDEEC00A10EE100A00B204EBF3
:10162000840101EBC401514A02EBC101A1F864003D
:10163000601CC4B2022CC6DB002434E004EB84013D
:1016400001EBC401494A02EBC101B1F91A00FEF7EE
:1016500085FF9FED470B53EC102BFEF70DFF41EC80
:10166000190B04EB840101EBC401404A02EBC101F8
:10167000B1F96400FEF772FF9FED3F0B53EC102BA6
:10168000FEF7FAFE53EC192BFEF74FFEFEF777FF3D
:1016900001B204EB840000EBC400344A02EBC0004A
:1016A0004183601CC4B2022CC8DB002429E004EB97
:1016B0008402334901EB421101F1340004EB84024E
:1016C0002F4901EB421191ED091AB8EEC11AF0EE63
:1016D000410A04EB84022A4901EB421191ED081AF8
:1016E000B8EEC11AB0EE410A0DF0B9FCBDEEC00A69
:1016F00004EB8401224800EB411080ED060A601CD7
:10170000C4B2022CD3DB00242BE004EB84021C497E
:1017100001EB421101F1680004EB8402184901EB6E
:101720004211B1F90E1001EE101AB8EEC11AF0EE26
:10173000410A04EB8402124901EB421191ED061AB1
:10174000B8EEC11AB0EE410A0DF089FCBDEEC00A38
:1017500004EB84010A4800EB411080ED270A601C6D
:10176000C4B2022CD1DBBDEC088B10BD985B00200D
:101770009A9999999999C93F9A9999999999E93F0B
:10178000385D00202DE9F0412DED028B06F048FA7E
:10179000064606F051FA074606F048FA00EE100A2F
:1017A000F8EE400AB248B0F8320400EE100AB8EE83
:1017B000400AB2EE041A20EE010A80EE201AB0EEC2
:1017C000418AAC480078401CAA4908700846007855
:1017D00014282CD1322E00DA322606EBC60000EB9C
:1017E00006104FF6FF7101EA8001A148A0F83814F5
:1017F0000146B1F8380443F6982240F6B8310CF0AF
:10180000CBFC9B49A1F838040F2F0BDA701F00EBBB
:10181000C00101EB00104FF6FF7101EA800194480E
:10182000A0F838140EF0E6F90020924908703C2E1A
:1018300068D008DC282E0FD02D2E24D0322E39D09F
:10184000372E76D147E0462E77D0502E73D0642EB7
:1018500072D0782EF5D1B5E0874890ED000A874820
:1018600080ED000A864890ED000A864880ED000A67
:10187000834890ED000ABDEEC00A10EE100A05B2D2
:101880004FF4A074CCE07C4890ED010A7B4880EDD9
:10189000000A7B4890ED010A7A4880ED000A7848FA
:1018A00090ED010ABDEEC00A10EE100A05B24FF429
:1018B000A574B5E0704890ED010A704880ED000A0B
:1018C0006F4890ED010A6F4880ED000A4FF4FA6509
:1018D0004FF4AA74A4E0684890ED020A674880EDCE
:1018E000000A674890ED020A664880ED000A6448E5
:1018F00090ED020ABDEEC00A10EE100A05B24FF4D8
:10190000AF748DE05C4890ED030A5C4880ED000AFE
:101910005B4890ED030A5B4880ED000A584890ED63
:10192000030ABDEEC00A10EE100A05B24FF4C874E7
:1019300076E05EE001E017E02DE04F4890ED040A0C
:101940004E4880ED000A4E4890ED040A4D4880ED67
:10195000000A4B4890ED040ABDEEC00A10EE100AD2
:1019600005B24FF4CD745BE0434890ED050A43485F
:1019700080ED000A424890ED050A424880ED000AD9
:101980003F4890ED050ABDEEC00A10EE100A05B200
:101990004FF4FA7444E0384890ED060A374880ED79
:1019A000000A374890ED060A364880ED000A3448B0
:1019B00090ED060ABDEEC00A10EE100A05B240F224
:1019C00026242DE02C4890ED070A2C4880ED000AD3
:1019D0002B4890ED070A2B4880ED000A284890ED2F
:1019E000070ABDEEC00A10EE100A05B240F28A24C2
:1019F00016E0214890ED000A204880ED000A2048BA
:101A000090ED000A1F4880ED000A1D4890ED000A85
:101A1000BDEEC00A10EE100A05B24FF4FF7400BF0D
:101A200000BF00EE104AB8EEC00A20EE080ABDEE74
:101A3000C00A10EE100A00B21349088000EE104AE6
:101A4000B8EEC00A20EE080ABDEEC00A10EE100A79
:101A500000B20E49088000EE105AB8EEC00A20EE1F
:101A6000080A084880ED000ABDEC028BBDE8F08151
:101A7000985B00204902002004020020E0010020C1
:101A8000E4010020DC010020D4010020D601002068
:101A90000FB400B589B000F0A1FBFFF773FE24225C
:101AA0000EA96846FEF71DFC0AA80FC8FFF7CEFA7C
:101AB00024220EA96846FEF714FC0AA80FC800F0FD
:101AC00022F824220EA96846FEF70BFC0AA80FC8CC
:101AD00000F04EFC24220EA96846FEF702FC0AA87C
:101AE0000FC8FFF7C7FB24220EA96846FEF7F9FBD3
:101AF0000AA80FC800F04AF8FFF772FC0CF0E0FCEF
:101B000009B05DF814FB0FB400B5BDF83200012830
:101B100001D100F063FB5DF814FB000010B52DED62
:101B2000028BB0EE408A16484089404200B2154907
:101B3000088013480089404200B2134908801148C8
:101B4000B0F900101048B0F90000B0EE480A0DF0EE
:101B5000F3F80B48007C58B1012802D002280CD1C0
:101B600008E0B0EE480A0CF087FCBDEC028B10BD1B
:101B70000020FAE741F28830F7E700BF00BFF4E742
:101B8000E8560020D2010020D001002030B52DED14
:101B9000108B85B0FD4890ED000AB0EE409AB7EE8C
:101BA000000AF0EE408AB7EE000AB0EE408AB7EEC7
:101BB000000AF0EE409AF64903C9CDE902012D2052
:101BC0000CF0A2FBF348B0F9460400EE900AF8EEE0
:101BD000E00AF14890ED011AB8EEC11ADFEDEF1AF4
:101BE00021EE211A41EE400A10EE905A2846FEF7E7
:101BF000E5FC41EC1B0B2D200CF0C0FBE548B0F9D7
:101C0000440400EE900AF8EEE00AE34890ED011A71
:101C1000B8EEC11ADFEDE11A21EE211A41EE400AB9
:101C200010EE905A2846FEF7C9FC41EC1C0BB0EEB2
:101C30004B1AF0EE6B1AB0EE4C0AF0EE6C0A0AF09A
:101C40006BFBB0EE40AAF0EE60AA51EC1A0BFEF767
:101C5000C8FCD34908602D200CF056FBCD48B0F9E4
:101C6000460400EE900AF8EEE00ACB4890ED011A27
:101C7000B8EEC11ADFEDC91A21EE211A41EE000AB1
:101C800010EE905A2846FEF799FC41EC1B0B2D20D4
:101C90000CF074FBF0EE400ABE48B0F9440400EECC
:101CA000100AB8EEC00ABC4890ED011AB8EEC11A8D
:101CB000DFEDBA1A21EE211A01EE200A10EE105AB9
:101CC0002846FEF77BFC41EC1C0BB0EE4B1AF0EE05
:101CD0006B1AB0EE4C0AF0EE6C0A0AF01DFBB0EE87
:101CE00040AAF0EE60AA51EC1A0BFEF77AFCAC4960
:101CF0004860084690ED000ADFEDAA0A60EE200A6F
:101D00009FEDA91A9FEDA90A00EE810AA84880ED6F
:101D1000000A084690ED010ADFEDA20A60EE200AF3
:101D20009FEDA11A9FEDA30A00EE810AA04880ED65
:101D3000010A00249FE09E4901EB8401D1ED000AD5
:101D400004EB84029C4901EB421191ED090AB8EEC3
:101D5000C00A70EEC00A04EB8402974901EB4211FD
:101D60004968490300EE101AB8EEC00A30EE800A46
:101D7000BDEEC00A10EE100A00EE100AB8EEC00A5E
:101D8000DFED8E0AB4EEE00AF1EE10FA0CDD00EEA3
:101D9000100AB8EEC00ADFED8A0A30EE600ABDEE26
:101DA000C00A10EE100A54E000EE100AB8EEC00AA5
:101DB000DFED840AB4EEE00AF1EE10FA13DD00EE76
:101DC000100AB8EEC00ADFED800A30EE600ABDEE00
:101DD000C00A10EE100ABFEE000A02A901EB84014E
:101DE00081ED000A35E000EE100AB8EEC00ADFED22
:101DF000770AB4EEE00AF1EE10FA0CD200EE100A07
:101E0000B8EEC00ADFED6E0A30EE200ABDEEC00A61
:101E100010EE100A1DE000EE100AB8EEC00ADFED69
:101E20006C0AB4EEE00AF1EE10FA12D200EE100ADB
:101E3000B8EEC00ADFED640A30EE200ABDEEC00A3B
:101E400010EE100ABFEE000A02A901EB840181ED39
:101E5000000A04EB8402584901EB4211496A01442B
:101E600000EE101AB8EEC00A514901EB840181ED71
:101E7000000A601CC4B2022CFFF65DAF2D200CF0EE
:101E80007DFA4448B0F9460400EE900AF8EEE00A04
:101E9000414890ED011AB8EEC11ADFED401A21EE6B
:101EA000211A41EE400A10EE905A2846FEF786FBB2
:101EB00041EC1E0B9FED471BB0EE4E0AF0EE6E0A92
:101EC0000AF0CAFB8DED000B2D200CF01DFA3148F5
:101ED000B0F9440400EE900AF8EEE00A2E4890EDC6
:101EE000011AB8EEC11ADFED2D1A21EE211A41EECA
:101EF000400A10EE905A2846FEF760FB41EC1E0B9C
:101F00009FED341BB0EE4E0AF0EE6E0A0AF0A4FB11
:101F1000B0EE40DAF0EE60DA9DED000B53EC102BE2
:101F200051EC1D0BFEF701FA41EC1C0BB0EE4C0A14
:101F3000F0EE6C0A0BF074FAB0EE40BAF0EE60BA54
:101F40009DED020A10EE101A0846FEF737FB41EC31
:101F50001F0B53EC1B2BFEF78FFA41EC1A0BFEF70D
:101F600040FB1E4908602D200CF008FAF0EE400AF4
:101F70000848B0F9460400EE100AB8EEC00A064858
:101F800090ED011AB8EEC11A2AE00000E00100202D
:101F9000941B0108985B0020DC5F00206C787A3E7F
:101FA000380200201B2F6542630BB6410068C7450D
:101FB0002802002000B8A245385D00200200C0457C
:101FC0002300004623000045230080450200C0C5D1
:101FD000230000C500000000000000403002002087
:101FE0005FED121A21EE211A01EE200A10EE105AAE
:101FF0002846FEF7E3FA41EC1E0B1FED0A1BB0EE7C
:102000004E0AF0EE6E0A0AF027FBB0EE40CAF0EE80
:1020100060CA2D200CF078F96B48B0F9440400EE4A
:10202000900AF8EEE00A694890ED011AB8EEC11A7C
:102030005FED261A21EE211A41EE000A10EE905AA9
:102040002846FEF7BBFA41EC1E0B1FED1E1BB0EE3F
:102050004E0AF0EE6E0A0AF0FFFAB0EE40DAF0EE49
:1020600060DA53EC1C2B51EC1D0BFEF75EF9CDE949
:1020700000019DED000B0BF0D3F9B0EE40AAF0EE9D
:1020800060AA9DED030A10EE101A0846FEF796FAB4
:1020900041EC1B0B53EC1A2BFEF7EEF941EC1F0B36
:1020A000FEF79FFA4A494860002423E0484800EBC5
:1020B000840090ED000AB4EEE80AF1EE10FA06DDB5
:1020C000434800EB840090ED000AF0EE408A40485F
:1020D00000EB840090ED000AB4EEC80AF1EE10FAAD
:1020E00006D23B4800EB840090ED000AB0EE408A37
:1020F000601CC4B2022CD9DBB0EE680A0BF0CAFF38
:10210000F0EE408AB0EE480A0BF0C4FFB0EE408A11
:10211000F4EEC98AF1EE10FA04DCB4EEC98AF1EEED
:1021200010FA18DDF4EEC88AF1EE10FA04D289EE46
:10213000080AF0EE409A12E0F4EEC88AF1EE10FAC6
:1021400004DD89EE280AF0EE409A08E089EE080ADC
:10215000F0EE409A03E0B7EE000AF0EE409A002459
:1021600017E01B4800EB840090ED000A20EE290ADE
:10217000BDEEC00A10EE100A00EB4000400000B2B5
:1021800004EB840101EBC4010F4A22F83100601C0A
:10219000C4B2022CE5DB00240FE00E4800EB840003
:1021A00090ED000ABDEEC00A04EB84010A4800EB82
:1021B000411080ED080A601CC4B2022CEDDB05B0B2
:1021C000BDEC108B30BD0000985B0020DC5F002070
:1021D0003002002028020020385D002000226049E3
:1021E000A1F84624C1F8482400215D4AA2F844140D
:1021F0000020ABE0002100EB800202EBC002584B54
:1022000023F832109FED570A00EB800101EBC0016B
:102210001A4602EBC10181ED0A0A9FED520A00EB5A
:10222000800101EBC00102EBC10181ED0E0A9FEDBF
:102230004D0A00EB800101EBC00102EBC10181ED11
:102240000F0A9FED480A00EB800101EBC00102EB91
:10225000C10181ED0C0A9FED430A00EB800101EB07
:10226000C00102EBC10181ED0B0A9FED3E0A00EBBC
:10227000800101EBC00102EBC10181ED130A9FED6A
:10228000390A00EB800101EBC00102EBC10181EDD5
:10229000170A9FED340A00EB800101EBC00102EB4D
:1022A000C10181ED180A9FED2F0A00EB800101EBBF
:1022B000C00102EBC10181ED140A9FED2A0A00EB77
:1022C000800101EBC00102EBC10181ED150A002282
:1022D00000EB8003244901EB43110A629FED210AC0
:1022E00000EB8002204901EB421181ED260A9FEDAF
:1022F0001D0A00EB80021C4901EB421181ED250A09
:102300009FED180A00EB8002174901EB421181EDA5
:10231000240A9FED140A00EB8002134901EB4211DD
:1023200081ED190A9FED0F0A00EB80020E4901EBC7
:10233000421181ED180A9FED0B0A00EB80020A4959
:1023400001EB421181ED170A411CC8B20428FFF6C7
:1023500051AF064900220A624A628A62CA62704725
:10236000985B002000000000385D0020985F00208E
:102370000FB41F480078642804DA1D480078401C18
:102380001B490870BDF81E00012815D118480078B7
:10239000642811D11748007870B91748D0F8FC00AC
:1023A000164908441449C1F8FC000020104908707F
:1023B00001201049087018E0BDF81E00012814D152
:1023C0000B480078642810D10A48007801280CD105
:1023D0000948D0F8FC00094908440749C1F8FC0045
:1023E0000020034908700349087004B070470000DA
:1023F0004A0200204B020020E45F0020C057010089
:1024000010B5024802F014FB10BD0000E0140020DB
:1024100010B5024802F00CFB10BD00004015002072
:1024200010B5024802F004FB10BD0000801400202B
:102430000146087810381823B0FBF3F20848805C96
:10244000C865032A05D908686FF30900001D88656F
:1024500003E008686FF309008865886D7047000025
:1024600048120108014600208A6A8B69CBB932B153
:10247000012A0DD0022A03D0032A10D10EE000BF9A
:10248000CB6A03F08073B3F1807F00D1012007E0B5
:10249000CB6AB3F1C07F00D1012001E000E000BFB2
:1024A00034E08B69B3F5005F1AD132B1012A07D04D
:1024B000022A03D0032A11D10AE000BF01200EE056
:1024C000CB6A03F08073B3F1807F00D1012006E076
:1024D000CB6AB3F1C07F00D1012000E000BF15E05E
:1024E00032B1012A05D0022A04D0032A0CD103E01C
:1024F00000BF00BF012008E0CB6A03F08073B3F196
:10250000807F00D1012000E000BF00BF704710B500
:10251000046863608468402C04D10468A260046885
:10252000E16003E00468A1600468E26010BD30B5BA
:102530000468246824F4802405682C6004686360BF
:102540008468402C04D10468A2600468E16003E060
:102550000468A1600468E26030BD70477047000005
:1025600001461648007808B9002070471448154BFA
:102570001B7810F8130008701148124B1B7800EB01
:102580004300407848700F480078401C0D4B18708D
:1025900018460078142801DB002018700A480278D9
:1025A00008480078904203D10020044B187002E0E4
:1025B0000220024B18700120D7E700007F000020A6
:1025C000550000207E0000207D00002030B502462E
:1025D000854C8869A04200D000BF00BF92F83C0043
:1025E000012801D1022030BD012082F83C0000BF4B
:1025F0000868092816D91068C0680C780A3C04EBF2
:1026000044050724AC40A0431468E0600C780A3C01
:1026100004EB44048868A0401468E468204314680C
:10262000E06013E0106800690C7804EB44050724AF
:10263000AC40A043146820610C7804EB4404886823
:10264000A040146824692043146820611068806BDE
:1026500020F440101468A0631068846B088A401E40
:1026600044EA00501468A0630879C01C0C7C001B6D
:1026700000EB80041F20A0401468A46B8443106802
:1026800084630879C01C0C7C001B00EB8004088864
:1026900080B2A0401468A46B20431468A063524C1D
:1026A0008869A04218D01068806820F470201468EF
:1026B000A060106880688C6920431468A06010686E
:1026C000806820F440101468A06010688068CC69AD
:1026D00020431468A0600BE01068806820F470202C
:1026E0001468A0601068806820F440101468A0602E
:1026F000487D30B11068406840F4806014686060C4
:1027000005E01068406820F4806014686060087D0F
:1027100030B11068406840F480501468606005E093
:102720001068406820F48050146860604868012890
:1027300004D002280FD0032827D119E0106840697F
:102740006FF30B001468606110684069CC68204327
:102750001468606126E0106880696FF30B001468EC
:10276000A06110688069CC6820431468A06119E0FA
:102770001068C0696FF30B001468E0611068C069ED
:10278000CC6820431468E0610CE01068006A6FF3C5
:102790000B00146820621068006ACC68204314683B
:1027A000206200BF00BF114B114C1068A04206D13F
:1027B0000868122803D1586840F4800058600C4C17
:1027C0001068A04209D10868102802D008681128B2
:1027D00003D1586840F40000586000BF002082F820
:1027E0003C0000BF00BFFEE601000F0000230140D7
:1027F0000020014038B502460020009000BF92F84A
:102800003C00012801D1022038BD012082F83C00A3
:1028100000BF0868092816D91068C0680C780A3CFF
:1028200004EB44050724AC40A0431468E0600C7836
:102830000A3C04EB44048868A0401468E468204320
:102840001468E06013E0106800690C7804EB44053C
:102850000724AC40A043146820610C7804EB4404C6
:102860008868A0401468246920431468206148687F
:10287000072817D21068406B0C79641E04EB84059E
:102880001F24AC40A04314686063088880B20C79B0
:10289000641E04EB8404A0401468646B2043146835
:1028A000606331E048680D2817D21068006B0C791E
:1028B000E41F04EB84051F24AC40A043146820638C
:1028C000088880B20C79E41F04EB8404A0401468EB
:1028D000246B20431468206316E01068C06A0C79EA
:1028E0000D3C04EB84051F24AC40A0431468E06257
:1028F000088880B20C790D3C04EB8404A040146875
:10290000E46A20431468E062194B1A4C1068A04234
:1029100006D10868122803D1586840F48000586036
:10292000144C1068A0421CD10868102802D0086816
:10293000112816D1586840F4000058600868102823
:102940000FD10D4800680D4CB0FBF4F000EB800097
:102950004000009002E00098401E0090009800287F
:10296000F9D100BF002082F83C0000BF00BF4BE758
:102970000023014000200140B000002040420F0031
:1029800001460868C06C704770B5044600250CB954
:10299000012070BD1549A06A884200D000BF206C9C
:1029A00030B9204600F024F80020606484F83C0030
:1029B000206C00F0100088B9206C20F4885040F0A2
:1029C000020020642046FEF765F800206064206C59
:1029D00020F0020040F00100206400E0012500BF6B
:1029E000002084F83C0000BF2846D2E70100000F19
:1029F00010B586B00446142101A8FDF78BFC1949D7
:102A0000206888422BD100BF002000901648006843
:102A100040F48070144908600846006800F4807033
:102A2000009000BF00BF00BF002000900E48143887
:102A3000006840F001000C4914390860084600683D
:102A400000F00100009000BF00BF022001900320B1
:102A500002900020039001A9044802F0F7F906B0A3
:102A600010BD000000200140443802400000024038
:102A700070B504460D4600262068806800F480602A
:102A8000B0F5806F11D12068806800F48070B0F5D7
:102A9000807F0AD1206C40F02000206400BF00201D
:102AA00084F83C0000BF012070BD02F0DFFA06464A
:102AB00012E0681C80B125B102F0D8FA801BA84250
:102AC0000AD9206C40F00400206400BF002084F884
:102AD0003C0000BF0320E7E72068006800F0020028
:102AE0000228E6D16FF0120021680860206C40F4E3
:102AF000007020642068806800F04050B8B9207EE3
:102B0000A8B92068C06A00F4700020B1206880680D
:102B100000F4806058B9206C20F480702064206C30
:102B200000F4805018B9206C40F0010020640020AF
:102B3000BAE7000008B501460020009000BF91F8F8
:102B40003C00012801D1022008BD012081F83C0091
:102B500000BF0868806800F00100A0B908688068BC
:102B600040F001000B6898603B4800683B4BB0FBAD
:102B7000F3F000EB4000009002E00098401E00904F
:102B800000980028F9D10868806800F0010000284A
:102B90005FD0086C40F20163984340F48070086491
:102BA0000868406800F4806028B1086C20F4005088
:102BB00040F480500864086C00F48050B0F5805FE9
:102BC00004D1486C20F00600486401E0002048640D
:102BD00000BF002081F83C0000BF214A6FF02200B6
:102BE0000B681860506800F01F0018BB1D4B086888
:102BF000984213D01C4B0868984204D1101D0068FD
:102C000000F01F0050B1194B0868984221D11448B8
:102C1000001D006800F01F0010281AD208688068A4
:102C200000F0405028B90868806840F080400B6888
:102C300098600EE00B4B086898420AD108688068DB
:102C400000F0405028B90868806840F080400B6868
:102C50009860002078E70000B000002040420F009C
:102C600000230140002001400021014000220140DA
:102C700010B5024692F82030012B01D0022B06D16C
:102C800010684069084314686061002010BD506AF4
:102C900040F4802050620120F8E7F0B504460D466C
:102CA0001E4694F8207020688368A86800B900E088
:102CB00000BF012F01D0022F7CD103F0806030B91A
:102CC00003F0006018B903F08050002873D0C3F3FC
:102CD0000161022905D9606A40F4000060620120A8
:102CE000F0BD012088403060A86860B9B5F800C028
:102CF000E86840EA4C5C206800F5C07000EB011009
:102D0000C0F800C00FE0D5E901C040EACC00D5F81A
:102D10000CC040EA0C00D4F800C00CF5C07C0CEBF1
:102D2000011CCCF80000D5F810C0206800F5C07078
:102D300000EB0110C0F804C0287D01280ED12068E6
:102D400000F5C07000EB0110406840F4807C206802
:102D500000F5C07000EB0110C0F804C0D079000687
:102D600092F806C040EA0C4092F805C040EA0C2CEC
:102D700010794CEA000C206800F5C07000EB0110DF
:102D8000C0F80CC0D078000692F802C040EA0C40AF
:102D900092F801C040EA0C2092F800C040EA0C0012
:102DA000D4F800C00CF5C07C0CEB011CCCF808007A
:102DB000206801E016E00FE000F5C07000EB0110A4
:102DC000006840F0010C206800F5C07000EB0110B5
:102DD000C0F800C0002083E7606A40F40010606221
:102DE00001207DE7606A40F480206062012077E77F
:102DF000F0B504460A46216894F82050012D01D010
:102E0000022D7ED1424901F50071086840F00100B1
:102E10000860086820F47C5008600868566A40EA38
:102E200006200860107D00F01F06012000FA06F35E
:102E3000C8699843C861A1F50071D069C8B9D1F8D3
:102E40000C029843C1F80C02908880B2968940EA3F
:102E5000064601F51070576940F83760108880B257
:102E6000168940EA064601F51070576900EBC70065
:102E70004660D069012819D1D1F80C021843C1F875
:102E80000C02908880B2168840EA064601F5107060
:102E9000576940F83760908980B2168940EA064643
:102EA00001F51070576900EBC7004660906928B9BA
:102EB000D1F804029843C1F8040204E0D1F80402F6
:102EC0001843C1F80402106928B9D1F814029843D4
:102ED000C1F8140204E0D1F814021843C1F8140236
:102EE000106A012804D1D1F81C021843C1F81C0251
:102EF000D1F8000220F00100C1F800020020F0BD6E
:102F0000FFE7606A40F4802060620120F7E700007C
:102F100000640040704770B5044694F82050012DBD
:102F200001D0022D7DD151B92068C06800F00300A6
:102F300080B9606A40F400106062012070BD2068B2
:102F4000006900F0030028B9606A40F40010606274
:102F50000120F3E7206800F5D87000EB011000684D
:102F600000F004009060906840B9206800F5D870C7
:102F700000EB01100068400D106007E0206800F5CC
:102F8000D87000EB01100068C0085060206800F5A0
:102F9000D87000EB0110006800F00200D0602068DB
:102FA00000F5D87000EB0110406800F00F001061D0
:102FB000206800F5D87000EB0110406800F47F40F5
:102FC000000A9061206800F5D87000EB011040689D
:102FD000000C5061206800F5D87000EB011080688B
:102FE0001870206800F5D87000EB0110806800F4BC
:102FF0007F40000A5870206800F5D87000EB01107F
:10300000806800F47F00000C9870206800F5D8708C
:1030100000EB01108068000ED870206800F5D870B1
:1030200000E02FE000EB0110C0681871206800F587
:10303000D87000EB0110C06800F47F40000A58719E
:10304000206800F5D87000EB0110C06800F47F0024
:10305000000C9871206800F5D87000EB0110C06872
:10306000000ED87131B92068C06840F02000266891
:10307000F06005E02068006940F0200026683061BB
:1030800000205BE7606A40F480206062012055E721
:103090002DE9F05F04460025206846692068D0F8D5
:1030A0000490206887682068D0F80CA02068D0F8C9
:1030B00010B02068D0F8188006F00100002855D024
:1030C00007F00100C0B101202168886007F002000C
:1030D00018B1204600F0B5FC0EE007F0040010B176
:1030E00045F4006508E007F0080010B145F480558C
:1030F00002E0204600F0A4FC07F48070C8B14FF451
:1031000080702168886007F4007018B1204600F0D4
:103110009AFC0EE007F4806010B145F4005508E019
:1031200007F4006010B145F4804502E0204600F04D
:1031300089FC07F48030C8B14FF480302168886082
:1031400007F4003018B1204600F07FFC0EE007F4D1
:10315000802010B145F4004508E007F4002010B1CC
:1031600045F4803502E0204600F06EFC06F00800D1
:1031700038B10AF0100020B145F400751020216824
:10318000C86006F0040040B10AF0080028B1082029
:103190002168C860204600F01FFA06F0020038B12E
:1031A0002068C06800F0030010B1204600F016FA55
:1031B00006F0400038B10BF0100020B145F48065F6
:1031C00010202168086106F0200040B10BF00800D3
:1031D00028B1082021680861204600F0FFFB06F0B6
:1031E000100038B12068006900F0030010B12046DB
:1031F00000F0F5FB06F4003040B109F0100028B1F2
:10320000102021684860204600F0EAFB06F4803078
:1032100040B109F0080028B1082021684860204624
:1032200000F014FC06F4004088B309F0040078B301
:1032300006F4807020B108F0010008B145F00105E6
:1032400006F4007020B108F0020008B145F0020554
:1032500006F4806020B108F0040008B145F00405D0
:1032600006F40060A0B108F0700088B108F07000AA
:10327000402817D006DC10280BD020280CD030288E
:1032800019D10CE0502810D0602814D110E01DE0B6
:1032900019E045F008050FE045F010050CE045F099
:1032A000200509E045F0400506E045F0800503E013
:1032B00045F4807500E000BF00BF2068806920F001
:1032C0007000216888610420216848602DB1606A1F
:1032D000284360622046FFF71DFEBDE8F09F70B5F1
:1032E00004460CB9012070BD94F8200010B92046A6
:1032F00000F0B0F82068006820F002002168086043
:1033000001F0B4FE05460DE001F0B0FE401B0A28B6
:1033100008D9606A40F400306062052084F820001B
:103320000120E0E72068406800F002000028EBD1AF
:103330002068006840F001002168086001F096FEF6
:1033400005460DE001F092FE401B0A2808D9606A8C
:1033500040F400306062052084F820000120C2E7BC
:103360002068406800F001000028EBD0207E012892
:1033700006D12068006840F080002168086005E000
:103380002068006820F0800021680860607E0128C5
:1033900006D12068006840F040002168086005E020
:1033A0002068006820F0400021680860A07E0128A5
:1033B00006D12068006840F020002168086005E020
:1033C0002068006820F0200021680860E07E012865
:1033D00006D12068006820F010002168086005E030
:1033E0002068006840F0100021680860207F0128F4
:1033F00006D12068006840F008002168086005E0F8
:103400002068006820F0080021680860607F0128BB
:1034100006D12068006840F004002168086005E0DB
:103420002068006820F0040021680860D4E90201E7
:10343000084321690843616908436168491E0843DC
:103440002168C86100206062012084F8200000200B
:1034500049E7000010B586B00446142101A8FCF726
:1034600059FF5749206888424AD156480068401C95
:10347000544908600846006801280FD100BF0020A9
:1034800000905148006840F000704F4908600846BD
:10349000006800F00070009000BF00BF00BF002077
:1034A000009049481038006840F001004649103942
:1034B00008600846006800F00100009000BF00BFEF
:1034C0004FF4C0500190022002900020039003208E
:1034D00004900920059001A93C4801F0B7FC0022A6
:1034E0000521132002F062F9132002F04FF90022A7
:1034F0000521142002F05AF9142002F047F95DE08A
:1035000033492068884259D100BF002000902E48DE
:10351000006840F080602C4908600846006800F0B0
:103520008060009000BF00BF26480068401C25490D
:1035300008600846006801280FD100BF00200090F5
:103540002148006840F000701F4908600846006884
:1035500000F00070009000BF00BF00BF002000908E
:1035600019481038006840F0020017491039086007
:103570000846006800F00200009000BF00BF4FF452
:1035800040500190022002900020039003200490FC
:103590000920059001A90F4801F058FC00220521DF
:1035A0003F2002F003F93F2002F0F0F8002205214D
:1035B000402002F0FBF8402002F0E8F806B010BD11
:1035C0000064004034000020403802400000024007
:1035D00000680040000402407047000010B58AB047
:1035E0000446EE492068884274D108AB01AA002144
:1035F0002046FFF790FC40F209220198811A904280
:103600006AD007DCA0F2012048B1022819D00328B3
:1036100016D127E001297CD00829F9D1D4E0E0486F
:10362000807F401CC1B2DE4881779DF823009DF861
:10363000221040EA012001B2DA48C18007F088F97F
:10364000E7E0D748C07F401CC1B2D548C1779DF89C
:1036500023009DF8221040EA012001B2D148A0F8D1
:10366000C210D6E0CE4890F82000401CC1B2CC4831
:1036700080F820109DF821009DF8202040EA0221CA
:10368000C9480AF057FDC848B0F9040000EE100A16
:10369000B8EEC00A9FEDC51AC0EE010AC24890ED0F
:1036A000000AB8EEC00A30EE800ADFEDC10A20EE53
:1036B000200ABDEEC00A80ED0F0A808FBD4909883F
:1036C000401A01B2B8484182C06BBA49086007F09D
:1036D0001FF89EE09EE0FFE7B14890F82200401CF2
:1036E000C1B2AF4880F822109DF821009DF820104B
:1036F00040EA012001B2B048A0F824119DF823004F
:103700009DF8221040EA012001B2AB48A0F8261132
:1037100000E002E003F0BCFC7BE0A14890F823004D
:10372000401CC1B29E4880F823109DF821009DF8EE
:10373000202040EA0221A048001D0AF0FBFC9E4820
:10374000B0F908009C4949684FF4005202FB01009F
:1037500000B2994988819DF823009DF8221040EA23
:10376000012001B29448C181B0F9080000EE100AAE
:10377000B8EEC00ADFED910A20EE200A9FED8B1A09
:10378000C0EE010A9FED8E0A30EE800A8D4880ED72
:10379000000A8948B0F9080000EE100AB8EEC00A25
:1037A000DFED860A20EE200ADFED800A80EE201A87
:1037B000854880ED001A834890ED000A834880ED2B
:1037C000000A03F065FC24E09DF820009DF821101C
:1037D00040EA01207E49A1F830049DF822009DF8BE
:1037E000231040EA01217A48A0F832149DF8240001
:1037F0009DF8251040EA01217548A0F834149DF881
:1038000026009DF8271040EA01217148A0F83614DF
:1038100000BF00BF6F49206888426FD108AB01AA82
:1038200000212046FFF777FB40F205220198811A1C
:10383000904245D005DCA0F2012038B1012821D109
:1038400021E001295BD00C291CD177E0544890F885
:103850002600401CC1B2524880F826109DF8230073
:103860009DF8221040EA012001B25948C1809DF81C
:1038700025009DF8241040EA012001B2544801813E
:10388000FDF748FB87E0464890F82700401CC1B28E
:10389000434880F827109DF823009DF8221040EA45
:1038A000012001B24A48A0F86E109DF825009DF84D
:1038B000241040EA012001B24548A0F870106AE0E7
:1038C0009DF821009DF8202040EA022142480AF09C
:1038D00031FC3F48B0F9A811D0F8A40101EB403108
:1038E0003B48C0F8C4119DF823009DF8221040EA1F
:1038F000012001B23648A0F8AE114CE04CE09DF832
:1039000021009DF8202040EA02213348A0300AF02F
:1039100011FC2F48B0F94812D0F8440201EB4031B5
:103920002B48C0F864129DF823009DF8221040EA4D
:10393000012001B22648A0F84E122CE0184890F859
:103940002A00401CC1B2164880F82A109DF82000B9
:103950009DF8211040EA01201D49A1F830049DF88E
:1039600022009DF8231040EA01211948A0F83214E2
:103970009DF824009DF8251040EA01211448A0F884
:1039800034149DF826009DF8271040EA01211048C4
:10399000A0F8361400BF00BF0AB010BD006400409C
:1039A00034080020A06300202062002000000046B0
:1039B00000007A4440000020E45F00200000B4438F
:1039C000000000C230000020380000203C00002031
:1039D000985B0020006800403C5D00207047704705
:1039E000704770B5044694F82000012822D10220C7
:1039F00084F820002068006820F001002168086039
:103A000001F034FB05460DE001F030FB401B0A28B5
:103A100008D9606A40F400306062052084F8200014
:103A2000012070BD2068406800F001000028EBD143
:103A30006062F6E7606A40F4002060620120F0E70F
:103A40007047704770477047704770477047000075
:103A50002DE9F04704460E4617461D46DDF8208046
:103A60004FF0000900BF94F83400012802D1022071
:103A7000BDE8F087012084F8340000BF94F83500D9
:103A8000012873D1022084F8350000206065206889
:103A9000006840F480202168086020680561434682
:103AA0003A4631462046FEF732FDF7492068884203
:103AB0005DD9F6492068884201D1202052E0F249C0
:103AC00048392068884201D120204BE0EF4960311D
:103AD0002068884201D1202044E0EB491831206859
:103AE000884201D120203DE0E84918312068884211
:103AF00001D1C01436E0E44930392068884201D150
:103B0000C0142FE0E14978312068884201D1C01407
:103B100028E0DD4930312068884201D1C01421E01D
:103B2000DA4930312068884202D14FF4001019E0A0
:103B3000D54918392068884202D14FF4001011E0AD
:103B4000D24990312068884202D14FF4001009E038
:103B5000CD4948312068884202D14FF4001001E07D
:103B60004FF00060C8494C39086020E1F5E3C749CF
:103B7000A831206888425CD9C4492068884201D1B4
:103B8000202052E0C04948392068884201D12020D5
:103B90004BE0BE4960312068884201D1202044E0DA
:103BA000B94918312068884201D120203DE0B74949
:103BB00018312068884201D1C01436E0B24930394A
:103BC0002068884201D1C0142FE0B04978312068C4
:103BD000884201D1C01428E0AB49303120688842C6
:103BE00001D1C01421E0A94930312068884202D1B6
:103BF0004FF4001019E0A44918392068884202D116
:103C00004FF4001011E0A14990312068884202D1A0
:103C10004FF4001009E09C4948312068884202D1E5
:103C20004FF4001001E04FF00060974950390860F0
:103C3000BDE096494831206888425CD993492068A4
:103C4000884201D1202052E08F49483920688842BB
:103C500001D120204BE08D4960312068884201D19C
:103C6000202044E0884918312068884201D1202072
:103C70003DE0864918312068884201D1C01436E001
:103C8000814930392068884201D1C0142FE07F4932
:103C900078312068884201D1C01428E07A49303157
:103CA0002068884201D1C01421E078493031206871
:103CB000884202D14FF4001019E073491839206886
:103CC000884202D14FF4001011E070499031206811
:103CD000884202D14FF4001009E06B494831206856
:103CE000884202D14FF4001001E04FF000606749B4
:103CF0001039C8605BE065492068884201D1202006
:103D000052E0614948392068884201D120204BE0C7
:103D10005E4960312068884201D1202044E05A4940
:103D200018312068884201D120203DE057491831E0
:103D30002068884201D1C01436E0534930392068E8
:103D4000884201D1C0142FE0504978312068884260
:103D500001D1C01428E04C4930312068884201D19B
:103D6000C01421E0494930312068884202D14FF423
:103D7000001019E0444918392068884202D14FF4F4
:103D8000001011E0414990312068884202D14FF47F
:103D9000001009E03C4948312068884202D14FF4C4
:103DA000001001E04FF00060384910398860364952
:103DB000206888425CD935492068884201D11020AA
:103DC00052E0314948392068884201D110204BE047
:103DD0002E4960312068884201D1102044E02A49F0
:103DE00018312068884201D110203DE02749183160
:103DF0002068884201D1001536E023493039206817
:103E0000884201D100152FE020497831206888428E
:103E100001D1001528E01C4930312068884201D1C9
:103E2000001521E0194930312068884202D14FF451
:103E3000801019E0144918392068884202D14FF4E3
:103E4000801011E0114990312068884202D14FF46E
:103E5000801009E00C4948312068884202D14FF4B3
:103E6000801001E04FF0806007494C39086020E184
:103E70000649A831206888425FD9044920688842F1
:103E800006D1102055E00000586402401060024046
:103E9000F8492068884201D110204AE0F64920689C
:103EA000884201D1102044E0F24960312068884204
:103EB00001D110203DE0F04948392068884201D105
:103EC000001536E0EB4918312068884201D1001511
:103ED0002FE0E94918312068884201D1001528E017
:103EE000E44978312068884201D1001521E0E24997
:103EF00030392068884202D14FF4801019E0DD4942
:103F000030312068884202D14FF4801011E0DA4944
:103F100030312068884202D14FF4801009E0D54941
:103F200090312068884202D14FF4801001E04FF0B8
:103F30008060D04908390860BBE0CF491839206853
:103F400088425BD9CC4960392068884201D1102071
:103F500050E0C8492068884201D110204AE0C64993
:103F60002068884201D1102044E0C24960312068B5
:103F7000884201D110203DE0BF494839206888427D
:103F800001D1001536E0BB4918312068884201D1C3
:103F900000152FE0B84918312068884201D100157A
:103FA00028E0B44978312068884201D1001521E029
:103FB000B14930392068884202D14FF4801019E0AD
:103FC000AC4930312068884202D14FF4801011E0B2
:103FD000A94930312068884202D14FF4801009E0AD
:103FE000A44990312068884202D14FF4801001E04A
:103FF0004FF08060A0497039C8605AE09E4960392E
:104000002068884201D1102050E09A4920688842F7
:1040100001D110204AE098492068884201D110203F
:1040200044E0944960312068884201D110203DE08D
:10403000914948392068884201D1001536E08D4900
:1040400018312068884201D100152FE08A491831C3
:104050002068884201D1001528E08649783120681F
:10406000884201D1001521E0834930392068884217
:1040700002D14FF4801019E07E4930312068884227
:1040800002D14FF4801011E07B4930312068884222
:1040900002D14FF4801009E07649903120688842BF
:1040A00002D14FF4801001E04FF080607249703906
:1040B000886070494831206888425BD96E49603910
:1040C0002068884201D1082050E06A49206888426F
:1040D00001D108204AE068492068884201D10820BF
:1040E00044E0644960312068884201D108203DE005
:1040F000614948392068884201D1401536E05D4960
:1041000018312068884201D140152FE05A491831F2
:104110002068884201D1401528E05649783120684E
:10412000884201D1401521E0534930392068884246
:1041300002D14FF4002019E04E4930312068884206
:1041400002D14FF4002011E04B4930312068884201
:1041500002D14FF4002009E046499031206888429E
:1041600002D14FF4002001E04FF000704149091FD7
:1041700008601FE140494831206888425BD93E49C8
:1041800060392068884201D1082050E03949206810
:10419000884201D108204AE037492068884201D18D
:1041A000082044E0334960312068884201D108206A
:1041B0003DE0314948392068884201D1401536E058
:1041C0002C4918312068884201D140152FE02A4936
:1041D00018312068884201D1401528E025497831FE
:1041E0002068884201D1401521E0234930392068F8
:1041F000884202D14FF4002019E01E493031206876
:10420000884202D14FF4002011E01B493031206870
:10421000884202D14FF4002009E01649903120680D
:10422000884202D14FF4002001E04FF000701149A4
:1042300008390860BEE010491839206888425DD905
:104240000D4960392068884201D1082052E00949AF
:104250002068884201D108204CE007492068884244
:1042600001D1082046E0034960312068884205D129
:1042700008203FE01064024070600240FA49206864
:10428000884201D1401535E0F8492068884201D1C3
:1042900040152FE0F44960312068884201D1401573
:1042A00028E0F24960312068884201D1401521E0C0
:1042B000ED4918312068884202D14FF4002019E0FE
:1042C000EA4918312068884202D14FF4002011E0F9
:1042D000E54978312068884202D14FF4002009E096
:1042E000E24978312068884202D14FF4002001E091
:1042F0004FF00070DC492839C8605BE0DA491839B2
:104300002068884201D1082051E0D8491839206836
:10431000884201D108204AE0D349483120688842C8
:1043200001D1082043E0D14948312068884201D1B9
:1043300008203CE0CC492068884201D1401536E095
:10434000CA492068884201D1401530E0C649603131
:104350002068884202D1401529E047E3C349603113
:104360002068884201D1401521E0BF4918312068FA
:10437000884202D14FF4002019E0BC49183120686E
:10438000884202D14FF4002011E0B749783120680B
:10439000884202D14FF4002009E0B4497831206806
:1043A000884202D14FF4002001E04FF00070AE4986
:1043B00028398860AD493031206888425BD9AA49E4
:1043C00018392068884201D1042050E0A7491839E3
:1043D0002068884201D1042049E0A349483120687F
:1043E000884201D1042042E0A04948312068884237
:1043F00001D104203BE09C492068884201D180150E
:1044000035E09A492068884201D180152FE096490D
:1044100060312068884201D1801528E093496031DD
:104420002068884201D1801521E08F491831206829
:10443000884202D14FF4802019E08C49183120685D
:10444000884202D14FF4802011E0874978312068FA
:10445000884202D14FF4802009E0844978312068F5
:10446000884202D14FF4802001E04FF080707F49F4
:104470001C3908601FE17C499031206888425BD973
:10448000794918392068884201D1042050E07749E1
:1044900018392068884201D1042049E07249483126
:1044A0002068884201D1042042E0704948312068E8
:1044B000884201D104203BE06B492068884201D149
:1044C000801535E069492068884201D180152FE0C8
:1044D000654960312068884201D1801528E0634930
:1044E00060312068884201D1801521E05E49183191
:1044F0002068884202D14FF4802019E05B491831CE
:104500002068884202D14FF4802011E0564978316A
:104510002068884202D14FF4802009E05349783165
:104520002068884202D14FF4802001E04FF0807073
:104530004E4920390860BEE04B493031206888423E
:104540005BD9494918392068884201D1042050E0DC
:10455000464918392068884201D1042049E042497F
:1045600048312068884201D1042042E03F49483167
:104570002068884201D104203BE03B492068884202
:1045800001D1801535E039492068884201D1801574
:104590002FE0354960312068884201D1801528E03C
:1045A000324960312068884201D1801521E02E49CE
:1045B00018312068884202D14FF4802019E02B493D
:1045C00018312068884202D14FF4802011E026493A
:1045D00078312068884202D14FF4802009E02349D5
:1045E00078312068884202D14FF4802001E04FF0FA
:1045F00080701D492839C8605DE01B491839206862
:10460000884201D1042053E01849183920688842B3
:1046100001D104204CE0144948312068884201D17E
:10462000042045E0114948312068884201D1042026
:104630003EE00D492068884201D1801538E00B49E1
:104640002068884201D1801532E007496031206836
:10465000884201D180152BE00449603120688842EE
:1046600006D1801524E00000286002402864024042
:10467000E3492068884202D14FF4802018E0E149E4
:104680002068884202D14FF4802011E0DC4960317B
:104690002068884202D14FF4802009E0D949603176
:1046A0002068884202D14FF4802001E04FF08070F2
:1046B000D34940398860D3491831206888425BD992
:1046C000CF4930392068884201D1012050E0CD49DE
:1046D00030392068884201D1012049E0C849303191
:1046E0002068884201D1012042E0C649303120686B
:1046F000884201D101203BE0C14918392068884235
:1047000001D1402034E0BF4918392068884201D1E6
:1047100040202DE0BA4948312068884201D140202C
:1047200026E0B84948312068884201D140201FE086
:10473000B3492068884202D14FF4803018E0B14973
:104740002068884202D14FF4803011E0AC496031DA
:104750002068884202D14FF4803009E0A9496031D5
:104760002068884202D14FF4803001E04FF480008D
:10477000A449343908601CE1A14978312068884295
:104780005BD99F4930392068884201D1012050E02F
:104790009C4930392068884201D1012049E098497C
:1047A00030312068884201D1012042E09549303102
:1047B0002068884201D101203BE0914918392068E6
:1047C000884201D1402034E08E491839206888425F
:1047D00001D140202DE08A4948312068884201D12A
:1047E000402026E0874948312068884201D1402096
:1047F0001FE083492068884202D14FF4803018E0DE
:1048000080492068884202D14FF4803011E07C4911
:1048100060312068884202D14FF4803009E0794944
:1048200060312068884202D14FF4803001E04FF4BB
:104830008000744938390860BBE07149183120683C
:1048400088425BD96E4930392068884201D1012005
:1048500050E06C4930392068884201D1012049E09C
:10486000674930312068884201D1012042E0654922
:1048700030312068884201D101203BE0604918397D
:104880002068884201D1402034E05E491839206810
:10489000884201D140202DE05949483120688842A2
:1048A00001D1402026E0574948312068884201D193
:1048B00040201FE052492068884202D14FF48030E6
:1048C00018E050492068884202D14FF4803011E04E
:1048D0004B4960312068884202D14FF4803009E0B2
:1048E000484960312068884202D14FF4803001E0AD
:1048F0004FF4800042494039C8605AE0404930399D
:104900002068884201D1012050E03E4930392068BA
:10491000884201D1012049E039493031206888427C
:1049200001D1012042E0374930312068884201D16D
:1049300001203BE0324918392068884201D14020EB
:1049400034E0304918392068884201D140202DE0F8
:104950002B4948312068884201D1402026E029496E
:1049600048312068884201D140201FE02449206856
:10497000884202D14FF4803018E0224920688842F2
:1049800002D14FF4803011E01D4960312068884227
:1049900002D14FF4803009E01A4960312068884222
:1049A00002D14FF4803001E04FF4800014494039C7
:1049B00088602068006840F0160021680860206860
:1049C000406940F0800021684861206C08B9A06C03
:1049D00028B12068006840F008002168086020685D
:1049E000006840F001002168086006E000BF002078
:1049F00084F8340000BF4FF002094846FFF738B88A
:104A00004060024040640240014691F835000228AF
:104A100003D08020486501207047052081F83500CB
:104A20000868006820F001000A6810600020F3E7C1
:104A3000F8B50446002000908C4800684FF41651E9
:104A4000B0FBF1F7A56D2E6894F85C100820884043
:104A5000304098B12068006800F0040070B1206810
:104A6000006820F004002168086094F85C100820B9
:104A70008840A860606D40F00100606594F85C10AB
:104A800001208840304068B12068406900F0800013
:104A900040B194F85C1001208840A860606D40F03F
:104AA0000200606594F85C1004208840304068B1D2
:104AB0002068006800F0020040B194F85C10042007
:104AC0008840A860606D40F00400606594F85C1058
:104AD00010208840304078B32068006800F008005B
:104AE00050B394F85C1010208840A86020680068DB
:104AF00000F4802080B12068006800F4002028B90C
:104B0000206CC8B12046216C884715E0A06C98B194
:104B10002046A16C88470FE02068006800F4807090
:104B200028B92068006820F0080021680860206C1F
:104B300010B12046216C884794F85C1020208840F2
:104B40003040002865D02068006800F01000002880
:104B50005FD094F85C1020208840A86094F835005D
:104B6000052828D12068006820F016002168086018
:104B70002068406920F0800021684861206C08B9F5
:104B8000A06C28B12068006820F008002168086047
:104B900094F85C103F208840A86000BF002084F893
:104BA000340000BF012084F83500206D10B120468C
:104BB000216D8847F8BD2068006800F4802080B12E
:104BC0002068006800F4002028B9606C10B120460D
:104BD000616C88471DE0E06BD8B12046E16B8847E7
:104BE00017E02068006800F4807068B920680068E9
:104BF00020F010002168086000BF002084F8340015
:104C000000BF012084F83500E06B10B12046E16B55
:104C10008847606D38B3606D00F00100F0B1052089
:104C200084F835002068006820F0010021680860E1
:104C300000BF0098401C0090B84200D905E02068F1
:104C4000006800F001000028F3D100BF00BF002081
:104C500084F8340000BF012084F83500E06C10B106
:104C60002046E16C884700BFA4E70000B0000020A8
:104C70002DE9F0410446002500F0F8F9074614B983
:104C80000120BDE8F081606A00B100BF00BF0020D4
:104C900084F8340000BF022084F8350020680068E2
:104CA00020F00100216808600AE000F0DFF9C01B75
:104CB000052805D920206065032084F83500E0E749
:104CC0002068006800F001000028EED12068056827
:104CD00021480540D4E901010843E16808432169FE
:104CE000084361690843A1690843E1690843216AEF
:104CF00008430543606A042803D1D4E90B01084343
:104D00000543206805602068456925F00705606A4D
:104D10000543606A04280DD1A06A0543E06A48B1E2
:104D20002046FDF79FFB28B140206065012084F8F4
:104D30003500A6E7206845612046FDF779FB064669
:104D400094F85C103F208840B0600020606501202E
:104D500084F83500002094E73F8010F010B503463A
:104D6000002400BF93F83400012801D1022010BDB7
:104D7000012083F8340000BF93F83500012814D1D6
:104D8000062910D2DFE801F0030507090B0DDA63ED
:104D90000AE01A6408E05A6406E09A6404E0DA64FF
:104DA00002E01A6500E000BF00E0012400BF00201F
:104DB00083F8340000BF2046D9E72DE9F0470446C8
:104DC0000D4616461F464FF00008D4F8589000BF15
:104DD00094F83400012802D10220BDE8F0870120B8
:104DE00084F8340000BF94F83500012825D1022052
:104DF00084F83500002060653B463246294620464F
:104E0000FDF795FB94F85C103F208840C9F8080036
:104E10002068006840F0160021680860206C28B106
:104E20002068006840F00800216808602068006879
:104E300040F001002168086006E000BF002084F80F
:104E4000340000BF4FF002084046C6E7F8B50246FE
:104E50000B460025002400200021DCE0012606FA94
:104E600001F51E6806EA0504AC4273D15E68012EA6
:104E700008D05E68022E05D05E68112E02D05E68F2
:104E8000122E13D190684F000326BE40B0434F004E
:104E9000DE68BE4030439060506801268E40B043CB
:104EA0001E79C6F300168E4030435060D0684F0024
:104EB0000326BE40B0434F009E68BE403043D060E2
:104EC0005E68022E02D05E68122E13D1CF0802F166
:104ED000200656F827004E07F70E0F26BE40B043B7
:104EE0004F07FF0E1E69BE403043CF0802F1200677
:104EF00046F8270010684F000326BE40B0431E79D5
:104F000006F003064F00BE40304310605E6806F0B6
:104F10008056B6F1805F7DD100BF00260096404EDE
:104F2000366846F480463E4F3E603E46366806F49C
:104F30008046009600BF00BF3A4E8F0856F8270003
:104F40008E07370F0F26BE40B043374EB24202D114
:104F5000002624E05EE0354EB24201D101261EE07B
:104F6000334EB24201D1022619E0324EB24201D193
:104F7000032614E0304EB24201D104260FE02F4E3A
:104F8000B24201D105260AE02D4EB24201D10626D9
:104F900005E02C4EB24201D1072600E008268F071B
:104FA0003F0FBE4030431F4E8F0846F82700264E65
:104FB0003068A0435E6806F48036B6F5803F00D1C5
:104FC0002043214E3060361D3068A0435E6806F4F1
:104FD0000036B6F5003F00D120431B4E361D306031
:104FE000361D3068A0435E6806F48016B6F5801F53
:104FF00000D12043144E08363060361D3068A0437F
:105000005E6806F40016B6F5001F00D120430E4E70
:105010000C363060491C1029FFF420AFF8BD0000A9
:1050200044380240083801400000024000040240B9
:1050300000080240000C0240001002400014024030
:1050400000180240001C0240003C014042690A4036
:105050008A4202D10A04826100E0816170470AB18C
:10506000816101E00B048361704700000148006822
:10507000704700004C00002070B504460CB90120B8
:1050800070BD94F83D0028B9002084F83C0020460B
:1050900000F06EFA242084F83D002068006820F0BB
:1050A0000100216808602068006840F40040216821
:1050B00008602068006820F400402168086000F063
:1050C000B1FC05465C496068884206D85B48854269
:1050D00001D2012007E0002005E05948854201D2B5
:1050E000012000E00020012800D1C9E75548B5FBA8
:1050F000F0F62068406820F03F00304321684860A7
:105100004D496068884201D8701C07E04FF49670E2
:1051100070434FF47A71B0FBF1F0401C2168096ACA
:1051200021F03F01084321680862434960688842D2
:1051300014D8681E61684900B0FBF1F0401CC0F350
:105140000B00042801D204203DE0681E616849007C
:10515000B0FBF1F0401CC0F30B0034E0A06838B99C
:10516000681E616801EB4101B0FBF1F0401C0AE0F0
:10517000681E616801EBC10202EB0111B0FBF1F0A6
:10518000401C40F48040C0F30B0008B901201AE035
:10519000A06848B9681E616801EB4101B0FBF1F0FD
:1051A000401CC0F30B000CE0681E616801EBC102FB
:1051B00002EB0111B0FBF1F0401CC0F30B0040F416
:1051C000804040F400402168C9694CF6FF72914369
:1051D00008432168C861D4E90701084321680968C8
:1051E00021F0C001084321680860D4E90310084396
:1051F0002168896848F2FF3291430843216888603A
:10520000D4E9050108432168C96821F0FF0108437A
:105210002168C8602068006840F0010021680860CB
:1052200000202064202084F83D000020206384F8C2
:105230003E0000BF24E70000A086010080841E001D
:1052400000093D0040420F002DE9F84F04460F468B
:1052500090461E46FFF70AFF05464FF0010994F8F5
:105260003D0020287ED11923012263492046009564
:1052700002F0C2FB10B10220BDE8F88F00BF94F825
:105280003C00012801D10220F6E7012084F83C000F
:1052900000BF2068006800F0010028B9206800689D
:1052A00040F00100216808602068006820F4006078
:1052B00021680860242084F83D00002020644F48C5
:1052C000E06200BF2068006840F4807021680860D8
:1052D000334600224FF001112046009502F08CFB6E
:1052E00058B12068006800F48070B0F5807F02D16A
:1052F0004FF4007020640320BEE707F0FE00216831
:105300000861FFF7B3FE054620684069C0F3400A14
:1053100020684069C0F3802B10E0FFF7A7FE401B18
:10532000B04200D816B9A02084F83D00206840693A
:10533000C0F3400A20684069C0F3802B94F83D0018
:10534000A02805D0BAF1000F02D1BBF1000FE4D0C4
:10535000202084F83D0020684069C0F3400028B355
:10536000206800E045E0006840F4007021680860B3
:1053700000BF00200090206840690090206880698C
:10538000009000BF00BF192301221B492046009551
:1053900002F032FB08B101206EE7202084F83D00C6
:1053A00000BF002084F83C0000BF65E7206800686B
:1053B00040F40070216808606FF4806021684861E3
:1053C000192301220C492046009502F015FB08B173
:1053D000012051E709F10109C145FFF473AF202015
:1053E00084F83D0000BF002084F83C0000BF01208D
:1053F00042E7022040E70000020010000000FFFF2B
:105400002DE9F8430446894616461F46DDF82080FC
:10541000FFF72CFE054694F83D0020287ED1192385
:10542000012251492046009502F0E6FA10B102200F
:10543000BDE8F88300BF94F83C00012801D10220A8
:10544000F6E7012084F83C0000BF2068006800F007
:10545000010028B92068006840F001002168086058
:105460002068006820F4006021680860212084F82A
:105470003D00102084F83E000020206466626785AD
:10548000608D20853948E0622B46424649462046D9
:1054900002F024FA08B10120CAE700BF0020009002
:1054A00020684069009020688069009000BF00BFBC
:1054B00044E02A464146204602F043FB50B1206CAE
:1054C000042805D12068006840F400702168086055
:1054D0000120ADE7606A007821680861606A401CBD
:1054E0006062608D401E6085208D401E2085206892
:1054F0004069C0F3800070B1208D60B1606A0078AF
:1055000021680861606A401C6062608D401E608591
:10551000208D401E20852A46414600E022E020469C
:1055200002F03CFA50B1206C042805D120680068D4
:1055300040F4007021680860012079E7208D002880
:10554000B7D12068006840F400702168086020200E
:1055500084F83D00002084F83E0000BF84F83C0041
:1055600000BF65E7022063E7020010000000FFFFB4
:1055700010B586B00446142101A8FAF7CBFE1B49EA
:10558000206888422FD100BF002000901848006892
:1055900040F00200164908600846006800F002006A
:1055A000009000BF00BFC020019012200290012097
:1055B0000390032004900420059001A90D48FFF7F3
:1055C00045FC00BF0020009009481030006840F4FE
:1055D00000100749103108600846006800F4001008
:1055E000009000BF00BF06B010BD00000054004096
:1055F000303802400004024070B504460CB9012066
:1056000070BD4CF6CC402168086045F255502168C9
:105610000860D4E9001048602168A0688860FFF73E
:1056200025FD054606E0FFF721FD401B302801D986
:105630000320E5E72068C0680028F4D14AF6AA20D4
:10564000216808600020DBE701464AF6AA200A68C4
:105650001060002070470000034800680349097883
:1056600008440149086070474C00002054000020A5
:1056700010B50D48006840F400700B4908600846FA
:10568000006840F4806008600846006840F480705C
:105690000860032000F0C8F8002000F007F800F0D0
:1056A0004BF8002010BD0000003C024070B588B0EF
:1056B00004460025002600222146362000F076F818
:1056C000362000F063F800BF002001901648006803
:1056D00040F01000144908600846006800F010000F
:1056E000019000BF00BF02A903A800F073F900F009
:1056F00099F945000D48B5FBF0F0461E0C480D49E0
:10570000086040F2E7310B48C1604660002101614A
:10571000816000F063FD20B9064800F0BBFD08B0D1
:1057200070BD0120FBE700004038024040420F00FE
:1057300000100040A015002008B500BF0020009018
:105740001148006840F480400F490860084600682E
:1057500000F48040009000BF00BF00BF0020009018
:10576000081F006840F08050091F08600846006864
:1057700000F08050009000BF00BF00220F21901E5B
:1057800000F014F808BD0000443802400146084605
:10579000002809DB00F01F0301229A4043099B0007
:1057A00003F1E023C3F8002100BF70472DE9F05F4B
:1057B00080460D461646002706F024FC074639466B
:1057C0002A46334601F00700C0F1070ABAF1040F78
:1057D00002D94FF0040A01E0C0F1070AD14600F1F6
:1057E000040ABAF1070F02D24FF0000A01E0A0F15B
:1057F000030AD4464FF0010A0AFA09FAAAF1010A8B
:105800000AEA020A0AFA0CFA4FF0010B0BFA0CFB37
:10581000ABF1010B0BEA030B4AEA0B0421464046AD
:1058200006F0F8FBBDE8F09F00BF00F00702064B52
:1058300019684FF6FF031940044B0B4343EA02215A
:10584000014B196000BF70470CED00E00000FA0545
:1058500070B504460D460CB9012070BD584800686B
:1058600000F00F00A84209D255490D7008460068A3
:1058700000F00F00A84201D00120EEE7207800F0F0
:10588000020002281DD1207800F00400042805D170
:105890004C48006840F4E0504A490860207800F025
:1058A0000800082805D14748006840F46040454991
:1058B00008604448006820F0F000A16808434149AE
:1058C0000860207800F00100A8B36068012807D1C3
:1058D0003C4808380068C0F34040B8B90120BCE734
:1058E0006068022802D06068032807D1354808386C
:1058F0000068C0F3406048B90120AEE7314808387D
:105900000068C0F3400008B90120A6E72D480068F0
:1059100020F00300616808432A490860FFF7A6FBEE
:10592000064609E0FFF7A2FB801B41F2883188425E
:1059300002D9032091E707E02248006800F00C003C
:105940006168B0EB810FEDD11D48006800F00F00D9
:10595000A84209D91A490D700846006800F00F00E6
:10596000A84201D0012078E7207800F00400042844
:1059700007D11448006820F4E050E1680843114959
:105980000860207800F00800082808D10D48006859
:1059900020F46040216940EAC1000A49086000F033
:1059A00061F808490968C1F30311074A515CC8400E
:1059B0000649086006480068FFF778FE00204CE7BB
:1059C000003C02400838024078180108B00000206E
:1059D000500000200F2202600D4A126802F00302FC
:1059E00042600B4A126802F0F0028260084A1268B4
:1059F00002F4E052C260064A126802F46042D20821
:105A00000261044A126802F00F020A607047000047
:105A100008380240003C024001480068704700001E
:105A2000B000002000B5FFF7F7FF04490968C1F393
:105A30008221034A515CC84000BD00000838024082
:105A40008818010800B5FFF7E7FF04490968C1F3AA
:105A50004231034A515CC84000BD00000838024092
:105A6000881801082DE9F047002400250026A146EA
:105A70002548006800F00C0020B1042805D0082853
:105A80003AD105E0DFF8849039E0DFF8849036E021
:105A90001D48001F006800F03F041B48001F0068FD
:105AA00000F4800078B11A481749091F0968C1F34A
:105AB0008811A0FB01700146224600233846FAF700
:105AC000DFFB05460EE011480F49091F0968C1F3C5
:105AD0008811A0FB01700146224600233846FAF7E0
